{
  "contractName": "Escrow",
  "abi": [
    {
      "inputs": [
        {
          "internalType": "address",
          "name": "seller",
          "type": "address"
        }
      ],
      "stateMutability": "nonpayable",
      "type": "constructor"
    },
    {
      "anonymous": false,
      "inputs": [
        {
          "indexed": true,
          "internalType": "bytes32",
          "name": "role",
          "type": "bytes32"
        },
        {
          "indexed": true,
          "internalType": "bytes32",
          "name": "previousAdminRole",
          "type": "bytes32"
        },
        {
          "indexed": true,
          "internalType": "bytes32",
          "name": "newAdminRole",
          "type": "bytes32"
        }
      ],
      "name": "RoleAdminChanged",
      "type": "event"
    },
    {
      "anonymous": false,
      "inputs": [
        {
          "indexed": true,
          "internalType": "bytes32",
          "name": "role",
          "type": "bytes32"
        },
        {
          "indexed": true,
          "internalType": "address",
          "name": "account",
          "type": "address"
        },
        {
          "indexed": true,
          "internalType": "address",
          "name": "sender",
          "type": "address"
        }
      ],
      "name": "RoleGranted",
      "type": "event"
    },
    {
      "anonymous": false,
      "inputs": [
        {
          "indexed": true,
          "internalType": "bytes32",
          "name": "role",
          "type": "bytes32"
        },
        {
          "indexed": true,
          "internalType": "address",
          "name": "account",
          "type": "address"
        },
        {
          "indexed": true,
          "internalType": "address",
          "name": "sender",
          "type": "address"
        }
      ],
      "name": "RoleRevoked",
      "type": "event"
    },
    {
      "inputs": [],
      "name": "AGENT_ROLE",
      "outputs": [
        {
          "internalType": "bytes32",
          "name": "",
          "type": "bytes32"
        }
      ],
      "stateMutability": "view",
      "type": "function"
    },
    {
      "inputs": [],
      "name": "BUYER_ROLE",
      "outputs": [
        {
          "internalType": "bytes32",
          "name": "",
          "type": "bytes32"
        }
      ],
      "stateMutability": "view",
      "type": "function"
    },
    {
      "inputs": [],
      "name": "DEFAULT_ADMIN_ROLE",
      "outputs": [
        {
          "internalType": "bytes32",
          "name": "",
          "type": "bytes32"
        }
      ],
      "stateMutability": "view",
      "type": "function"
    },
    {
      "inputs": [],
      "name": "SELLER_ROLE",
      "outputs": [
        {
          "internalType": "bytes32",
          "name": "",
          "type": "bytes32"
        }
      ],
      "stateMutability": "view",
      "type": "function"
    },
    {
      "inputs": [],
      "name": "currentState",
      "outputs": [
        {
          "internalType": "enum Escrow.state",
          "name": "",
          "type": "uint8"
        }
      ],
      "stateMutability": "view",
      "type": "function"
    },
    {
      "inputs": [
        {
          "internalType": "address",
          "name": "",
          "type": "address"
        }
      ],
      "name": "deposits",
      "outputs": [
        {
          "internalType": "uint256",
          "name": "",
          "type": "uint256"
        }
      ],
      "stateMutability": "view",
      "type": "function"
    },
    {
      "inputs": [
        {
          "internalType": "bytes32",
          "name": "role",
          "type": "bytes32"
        }
      ],
      "name": "getRoleAdmin",
      "outputs": [
        {
          "internalType": "bytes32",
          "name": "",
          "type": "bytes32"
        }
      ],
      "stateMutability": "view",
      "type": "function"
    },
    {
      "inputs": [
        {
          "internalType": "bytes32",
          "name": "role",
          "type": "bytes32"
        },
        {
          "internalType": "uint256",
          "name": "index",
          "type": "uint256"
        }
      ],
      "name": "getRoleMember",
      "outputs": [
        {
          "internalType": "address",
          "name": "",
          "type": "address"
        }
      ],
      "stateMutability": "view",
      "type": "function"
    },
    {
      "inputs": [
        {
          "internalType": "bytes32",
          "name": "role",
          "type": "bytes32"
        }
      ],
      "name": "getRoleMemberCount",
      "outputs": [
        {
          "internalType": "uint256",
          "name": "",
          "type": "uint256"
        }
      ],
      "stateMutability": "view",
      "type": "function"
    },
    {
      "inputs": [
        {
          "internalType": "bytes32",
          "name": "role",
          "type": "bytes32"
        },
        {
          "internalType": "address",
          "name": "account",
          "type": "address"
        }
      ],
      "name": "grantRole",
      "outputs": [],
      "stateMutability": "nonpayable",
      "type": "function"
    },
    {
      "inputs": [
        {
          "internalType": "bytes32",
          "name": "role",
          "type": "bytes32"
        },
        {
          "internalType": "address",
          "name": "account",
          "type": "address"
        }
      ],
      "name": "hasRole",
      "outputs": [
        {
          "internalType": "bool",
          "name": "",
          "type": "bool"
        }
      ],
      "stateMutability": "view",
      "type": "function"
    },
    {
      "inputs": [
        {
          "internalType": "bytes32",
          "name": "role",
          "type": "bytes32"
        },
        {
          "internalType": "address",
          "name": "account",
          "type": "address"
        }
      ],
      "name": "renounceRole",
      "outputs": [],
      "stateMutability": "nonpayable",
      "type": "function"
    },
    {
      "inputs": [
        {
          "internalType": "bytes32",
          "name": "role",
          "type": "bytes32"
        },
        {
          "internalType": "address",
          "name": "account",
          "type": "address"
        }
      ],
      "name": "revokeRole",
      "outputs": [],
      "stateMutability": "nonpayable",
      "type": "function"
    },
    {
      "inputs": [
        {
          "internalType": "address",
          "name": "seller",
          "type": "address"
        }
      ],
      "name": "depositPayment",
      "outputs": [],
      "stateMutability": "payable",
      "type": "function"
    },
    {
      "inputs": [
        {
          "internalType": "address payable",
          "name": "seller",
          "type": "address"
        },
        {
          "internalType": "bool",
          "name": "status",
          "type": "bool"
        }
      ],
      "name": "deliveryConfirmed",
      "outputs": [],
      "stateMutability": "nonpayable",
      "type": "function"
    }
  ],
  "bytecode": "0x60806040523480156200001157600080fd5b506040516200155638038062001556833981810160405260208110156200003757600080fd5b81019080805190602001909291905050506200007a7fcab5a0bfe0b79d2c4b1c2e02599fa044d115b7511f9659307cb427695096770933620000e560201b60201c565b620000ac7ff8cd32ed93fc2f9fc78152a14807c9609af3d99c5fe4dc6b106a801aaddfe90e33620000e560201b60201c565b620000de7f43f25613eb2f15fb17222a5d424ca2655743e71265d98e4b93c05e5fb589ecde82620000e560201b60201c565b506200027b565b620000f78282620000fb60201b60201c565b5050565b62000129816000808581526020019081526020016000206000016200019e60201b62000de91790919060201c565b156200019a576200013f620001d660201b60201c565b73ffffffffffffffffffffffffffffffffffffffff168173ffffffffffffffffffffffffffffffffffffffff16837f2f8788117e7eff1d82e926ec794901d17c78024a50270940304540a733656f0d60405160405180910390a45b5050565b6000620001ce836000018373ffffffffffffffffffffffffffffffffffffffff1660001b620001de60201b60201c565b905092915050565b600033905090565b6000620001f283836200025860201b60201c565b6200024d57826000018290806001815401808255809150506001900390600052602060002001600090919091909150558260000180549050836001016000848152602001908152602001600020819055506001905062000252565b600090505b92915050565b600080836001016000848152602001908152602001600020541415905092915050565b6112cb806200028b6000396000f3fe6080604052600436106100e85760003560e01c80637a01a1da1161008a578063ca15c87311610059578063ca15c8731461042a578063d547741f14610479578063dbe4613d146104d4578063fc7e286d146104ff576100e8565b80637a01a1da146102f45780639010d07c1461031f57806391d148541461038e578063a217fddf146103ff576100e8565b80632f2ff15d116100c65780632f2ff15d1461019d57806336568abe146101f8578063406448ca1461025357806367756fe9146102b0576100e8565b80630c3f6acf146100ed57806322459e1814610123578063248a9ca31461014e575b600080fd5b3480156100f957600080fd5b50610102610564565b6040518082600281111561011257fe5b815260200191505060405180910390f35b34801561012f57600080fd5b50610138610577565b6040518082815260200191505060405180910390f35b34801561015a57600080fd5b506101876004803603602081101561017157600080fd5b810190808035906020019092919050505061059b565b6040518082815260200191505060405180910390f35b3480156101a957600080fd5b506101f6600480360360408110156101c057600080fd5b8101908080359060200190929190803573ffffffffffffffffffffffffffffffffffffffff1690602001909291905050506105ba565b005b34801561020457600080fd5b506102516004803603604081101561021b57600080fd5b8101908080359060200190929190803573ffffffffffffffffffffffffffffffffffffffff169060200190929190505050610643565b005b34801561025f57600080fd5b506102ae6004803603604081101561027657600080fd5b81019080803573ffffffffffffffffffffffffffffffffffffffff1690602001909291908035151590602001909291905050506106dc565b005b6102f2600480360360208110156102c657600080fd5b81019080803573ffffffffffffffffffffffffffffffffffffffff169060200190929190505050610a23565b005b34801561030057600080fd5b50610309610c71565b6040518082815260200191505060405180910390f35b34801561032b57600080fd5b506103626004803603604081101561034257600080fd5b810190808035906020019092919080359060200190929190505050610c95565b604051808273ffffffffffffffffffffffffffffffffffffffff16815260200191505060405180910390f35b34801561039a57600080fd5b506103e7600480360360408110156103b157600080fd5b8101908080359060200190929190803573ffffffffffffffffffffffffffffffffffffffff169060200190929190505050610cc6565b60405180821515815260200191505060405180910390f35b34801561040b57600080fd5b50610414610cf7565b6040518082815260200191505060405180910390f35b34801561043657600080fd5b506104636004803603602081101561044d57600080fd5b8101908080359060200190929190505050610cfe565b6040518082815260200191505060405180910390f35b34801561048557600080fd5b506104d26004803603604081101561049c57600080fd5b8101908080359060200190929190803573ffffffffffffffffffffffffffffffffffffffff169060200190929190505050610d24565b005b3480156104e057600080fd5b506104e9610dad565b6040518082815260200191505060405180910390f35b34801561050b57600080fd5b5061054e6004803603602081101561052257600080fd5b81019080803573ffffffffffffffffffffffffffffffffffffffff169060200190929190505050610dd1565b6040518082815260200191505060405180910390f35b600160009054906101000a900460ff1681565b7fcab5a0bfe0b79d2c4b1c2e02599fa044d115b7511f9659307cb427695096770981565b6000806000838152602001908152602001600020600201549050919050565b6105e0600080848152602001908152602001600020600201546105db610e19565b610cc6565b610635576040517f08c379a000000000000000000000000000000000000000000000000000000000815260040180806020018281038252602f815260200180611208602f913960400191505060405180910390fd5b61063f8282610e21565b5050565b61064b610e19565b73ffffffffffffffffffffffffffffffffffffffff168173ffffffffffffffffffffffffffffffffffffffff16146106ce576040517f08c379a000000000000000000000000000000000000000000000000000000000815260040180806020018281038252602f815260200180611267602f913960400191505060405180910390fd5b6106d88282610eb4565b5050565b60018060009054906101000a900460ff1660028111156106f857fe5b81600281111561070457fe5b14610777576040517f08c379a000000000000000000000000000000000000000000000000000000000815260040180806020018281038252600f8152602001807f696e636f7272656374207374617465000000000000000000000000000000000081525060200191505060405180910390fd5b6107a17fcab5a0bfe0b79d2c4b1c2e02599fa044d115b7511f9659307cb427695096770933610cc6565b610813576040517f08c379a00000000000000000000000000000000000000000000000000000000081526004018080602001828103825260138152602001807f4e6f7420746865207269676874206167656e740000000000000000000000000081525060200191505060405180910390fd5b61083d7f43f25613eb2f15fb17222a5d424ca2655743e71265d98e4b93c05e5fb589ecde84610cc6565b6108af576040517f08c379a00000000000000000000000000000000000000000000000000000000081526004018080602001828103825260148152602001807f4e6f74207468652072696768742073656c6c657200000000000000000000000081525060200191505060405180910390fd5b6001151582151514610929576040517f08c379a00000000000000000000000000000000000000000000000000000000081526004018080602001828103825260168152602001807f64656c6976657279206e6f7420636f6e6669726d65640000000000000000000081525060200191505060405180910390fd5b6000600260008573ffffffffffffffffffffffffffffffffffffffff1673ffffffffffffffffffffffffffffffffffffffff1681526020019081526020016000205490506000600260008673ffffffffffffffffffffffffffffffffffffffff1673ffffffffffffffffffffffffffffffffffffffff168152602001908152602001600020819055508373ffffffffffffffffffffffffffffffffffffffff166108fc829081150290604051600060405180830381858888f193505050501580156109f8573d6000803e3d6000fd5b506002600160006101000a81548160ff02191690836002811115610a1857fe5b021790555050505050565b6000600160009054906101000a900460ff166002811115610a4057fe5b816002811115610a4c57fe5b14610abf576040517f08c379a000000000000000000000000000000000000000000000000000000000815260040180806020018281038252600f8152602001807f696e636f7272656374207374617465000000000000000000000000000000000081525060200191505060405180910390fd5b610ae97ff8cd32ed93fc2f9fc78152a14807c9609af3d99c5fe4dc6b106a801aaddfe90e33610cc6565b610b5b576040517f08c379a00000000000000000000000000000000000000000000000000000000081526004018080602001828103825260138152602001807f4e6f74207468652072696768742062757965720000000000000000000000000081525060200191505060405180910390fd5b610b857f43f25613eb2f15fb17222a5d424ca2655743e71265d98e4b93c05e5fb589ecde83610cc6565b610bf7576040517f08c379a00000000000000000000000000000000000000000000000000000000081526004018080602001828103825260148152602001807f4e6f74207468652072696768742073656c6c657200000000000000000000000081525060200191505060405180910390fd5b600034905080600260008573ffffffffffffffffffffffffffffffffffffffff1673ffffffffffffffffffffffffffffffffffffffff1681526020019081526020016000206000828254019250508190555060018060006101000a81548160ff02191690836002811115610c6757fe5b0217905550505050565b7ff8cd32ed93fc2f9fc78152a14807c9609af3d99c5fe4dc6b106a801aaddfe90e81565b6000610cbe82600080868152602001908152602001600020600001610f4790919063ffffffff16565b905092915050565b6000610cef82600080868152602001908152602001600020600001610f6190919063ffffffff16565b905092915050565b6000801b81565b6000610d1d600080848152602001908152602001600020600001610f91565b9050919050565b610d4a60008084815260200190815260200160002060020154610d45610e19565b610cc6565b610d9f576040517f08c379a00000000000000000000000000000000000000000000000000000000081526004018080602001828103825260308152602001806112376030913960400191505060405180910390fd5b610da98282610eb4565b5050565b7f43f25613eb2f15fb17222a5d424ca2655743e71265d98e4b93c05e5fb589ecde81565b60026020528060005260406000206000915090505481565b6000610e11836000018373ffffffffffffffffffffffffffffffffffffffff1660001b610fa6565b905092915050565b600033905090565b610e4881600080858152602001908152602001600020600001610de990919063ffffffff16565b15610eb057610e55610e19565b73ffffffffffffffffffffffffffffffffffffffff168173ffffffffffffffffffffffffffffffffffffffff16837f2f8788117e7eff1d82e926ec794901d17c78024a50270940304540a733656f0d60405160405180910390a45b5050565b610edb8160008085815260200190815260200160002060000161101690919063ffffffff16565b15610f4357610ee8610e19565b73ffffffffffffffffffffffffffffffffffffffff168173ffffffffffffffffffffffffffffffffffffffff16837ff6391f5c32d9c69d2a47ea670b442974b53935d1edc7fd64eb21e047a839171b60405160405180910390a45b5050565b6000610f568360000183611046565b60001c905092915050565b6000610f89836000018373ffffffffffffffffffffffffffffffffffffffff1660001b6110c9565b905092915050565b6000610f9f826000016110ec565b9050919050565b6000610fb283836110c9565b61100b578260000182908060018154018082558091505060019003906000526020600020016000909190919091505582600001805490508360010160008481526020019081526020016000208190555060019050611010565b600090505b92915050565b600061103e836000018373ffffffffffffffffffffffffffffffffffffffff1660001b6110fd565b905092915050565b6000818360000180549050116110a7576040517f08c379a00000000000000000000000000000000000000000000000000000000081526004018080602001828103825260228152602001806111e66022913960400191505060405180910390fd5b8260000182815481106110b657fe5b9060005260206000200154905092915050565b600080836001016000848152602001908152602001600020541415905092915050565b600081600001805490509050919050565b600080836001016000848152602001908152602001600020549050600081146111d9576000600182039050600060018660000180549050039050600086600001828154811061114857fe5b906000526020600020015490508087600001848154811061116557fe5b906000526020600020018190555060018301876001016000838152602001908152602001600020819055508660000180548061119d57fe5b600190038181906000526020600020016000905590558660010160008781526020019081526020016000206000905560019450505050506111df565b60009150505b9291505056fe456e756d657261626c655365743a20696e646578206f7574206f6620626f756e6473416363657373436f6e74726f6c3a2073656e646572206d75737420626520616e2061646d696e20746f206772616e74416363657373436f6e74726f6c3a2073656e646572206d75737420626520616e2061646d696e20746f207265766f6b65416363657373436f6e74726f6c3a2063616e206f6e6c792072656e6f756e636520726f6c657320666f722073656c66a26469706673582212207b7478f0cde8e04017126f432e23b9c83908925bd567c6d122453b333ceb3ccf64736f6c63430007060033",
  "immutableReferences": {},
  "source": "// SPDX-License-Identifier: MIT\npragma solidity >=0.4.22 <0.9.0;\n\nimport '@openzeppelin/contracts/access/AccessControl.sol';\n\ncontract Escrow is AccessControl {\n    // Create a new role identifier for the agent, buyer and seller roles\n    bytes32 public constant AGENT_ROLE = keccak256('AGENT_ROLE');\n    bytes32 public constant BUYER_ROLE = keccak256('BUYER_ROLE');\n    bytes32 public constant SELLER_ROLE = keccak256('SELLER_ROLE');\n    \n    \n    enum state {Awaiting_Payment, Awaiting_Delivery, Complete}\n    state public currentState;\n    modifier inState(state expectedState){\n        require(expectedState == currentState, 'incorrect state');\n        _;\n    }\n    \n    mapping(address => uint256) public deposits;\n    \n    constructor(address seller) {\n        // Grant the agent and buyer roles to a specified account\n        _setupRole(AGENT_ROLE, msg.sender);\n        _setupRole(BUYER_ROLE, msg.sender);\n        _setupRole(SELLER_ROLE, seller);\n    }\n    function depositPayment(address seller) inState(state.Awaiting_Payment) public payable {\n        //The buyer deposits the money into the contract\n        require(hasRole(BUYER_ROLE, msg.sender), 'Not the right buyer');\n        require(hasRole(SELLER_ROLE, seller), 'Not the right seller');\n        uint amount = msg.value;\n        deposits[seller] += amount;\n        currentState = state.Awaiting_Delivery;\n    }\n    \n    function deliveryConfirmed(address payable seller, bool status) inState(state.Awaiting_Delivery) public {\n        //agent confirms seller has delivered\n        require(hasRole(AGENT_ROLE, msg.sender), 'Not the right agent');\n        require(hasRole(SELLER_ROLE, seller), 'Not the right seller');\n        require(status == true, 'delivery not confirmed');\n        uint payment = deposits[seller];\n        deposits[seller] = 0;\n        seller.transfer(payment);\n        currentState = state.Complete;\n    }\n}\n    ",
  "sourcePath": "/Users/adewemimo/repos/Escrow/gbc-rbac_escrow/contracts/Escrow.sol",
  "compiler": {
    "name": "solc",
    "version": "0.7.6+commit.7338295f.Emscripten.clang"
  },
  "schemaVersion": "3.3.3",
  "updatedAt": "2021-03-01T18:00:14.752Z",
  "devdoc": {
    "kind": "dev",
    "methods": {
      "getRoleAdmin(bytes32)": {
        "details": "Returns the admin role that controls `role`. See {grantRole} and {revokeRole}. To change a role's admin, use {_setRoleAdmin}."
      },
      "getRoleMember(bytes32,uint256)": {
        "details": "Returns one of the accounts that have `role`. `index` must be a value between 0 and {getRoleMemberCount}, non-inclusive. Role bearers are not sorted in any particular way, and their ordering may change at any point. WARNING: When using {getRoleMember} and {getRoleMemberCount}, make sure you perform all queries on the same block. See the following https://forum.openzeppelin.com/t/iterating-over-elements-on-enumerableset-in-openzeppelin-contracts/2296[forum post] for more information."
      },
      "getRoleMemberCount(bytes32)": {
        "details": "Returns the number of accounts that have `role`. Can be used together with {getRoleMember} to enumerate all bearers of a role."
      },
      "grantRole(bytes32,address)": {
        "details": "Grants `role` to `account`. If `account` had not been already granted `role`, emits a {RoleGranted} event. Requirements: - the caller must have ``role``'s admin role."
      },
      "hasRole(bytes32,address)": {
        "details": "Returns `true` if `account` has been granted `role`."
      },
      "renounceRole(bytes32,address)": {
        "details": "Revokes `role` from the calling account. Roles are often managed via {grantRole} and {revokeRole}: this function's purpose is to provide a mechanism for accounts to lose their privileges if they are compromised (such as when a trusted device is misplaced). If the calling account had been granted `role`, emits a {RoleRevoked} event. Requirements: - the caller must be `account`."
      },
      "revokeRole(bytes32,address)": {
        "details": "Revokes `role` from `account`. If `account` had been granted `role`, emits a {RoleRevoked} event. Requirements: - the caller must have ``role``'s admin role."
      }
    },
    "version": 1
  },
  "userdoc": {
    "kind": "user",
    "methods": {},
    "version": 1
  }
}